:02000000502A84
:06000600000000000800EC
:0E000C00213083120313FD00FD0B0A280800AB
:10001A000F3083120313FC004730FD00FD0B132839
:0A002A00FC0B132800000000080082
:1000340083120317AB1B20288611212886152B1B3E
:100044002528061126280615AB1A2A2886102B28DF
:1000540086142B1A2F2806103028061403136D1843
:10006400352806163628061286160320861203172C
:10007400AB193E2886113F2886152B1943280611F3
:1000840044280615AB1848288610492886142B18CE
:100094004D2806104E28061403136D18532806160F
:1000A400542806128616032086126D1C5B280D2028
:0600B4005C280620080094
:1000BA00831203136D1003172A08AB001A206D145C
:0200CA0008002C
:1000CC007828803083120317A6008B28C030A60036
:1000DC008B289430A6008B28D430A6008B28803037
:1000EC00A6008B28831203172608013A03196728E8
:1000FC002608023A03196C282608033A03196F28BC
:10010C002608043A0319722875282703F0002608DC
:10011C00F0077008A6007008AB001A206D100317CA
:10012C00A90129082807840000080319A628290812
:10013C00280784000008AA005D200317A90A972845
:06014C0003136D1408000E
:0E015200831203136B088A006A0882000800FB
:1001600083160313861206120610861006118611D6
:1001700083128612061286110611861006100D20B3
:100180000D200D20861406148616032086120D20DD
:100190008616032086120D208616032086120D2057
:1001A00006108616032086120D208616032086125E
:1001B000861086158616032086120D2086110614D9
:1001C00086160320861206108616032086120D203E
:1001D00086160320861206148616032086120D202A
:1001E0000610861603208612861506158614061438
:0C01F0008616032086120D206D140800F6
:1001FC00013083120317AB001A2001300317A6003D
:10020C000130A7004430A800662002300317A60076
:10021C000130A7002030A80066200B30FB002630F0
:10022C00FC005D30FD00FD0B1929FC0B1929FB0BA3
:10023C0019290000000001300317AB001A2001300F
:10024C000317A6000130A7003230A80066200F303B
:10025C000317AB001A20C0300317AB001A2008009C
:10026C00803083120313F0007008083E8400FF30C6
:04027C0080000800F6
:10028000063083120313FD00FD0B44290000080013
:1002900083120317A301A40180302406F0008030EC
:1002A0007002031D55290630230203187229230802
:1002B000831603136E0784000008F10083120317EE
:1002C0002308831603136F078400710800060319BF
:1002D0006C29F001F101762983120317A30A03198F
:0E02E000A40A4C290130F0000030F1000800A3
:1002EE0083160313EE0183120317A301A40110302A
:1002FE00A500043024020318B629F0300313880039
:10030E008030F0007008083E840003172509F000C5
:10031E0070088000032003200F3003130805F0003F
:10032E0070088316EF0070080319AE2983120317A5
:10033E00230883160313EE006F080319AA29EF0C86
:10034E00EF13EE0AA329043083120317A4008312BD
:10035E000317A50D25100430A307A40A80298316C0
:08036E0003136E08F000080003
:10037600013083120317AB001A202B308316EE00D0
:10038600DB30EF0048210030831203137106031D92
:10039600CE2901307006031DE52901300317A6009A
:1003A6000130A700CA30A800662002300317A60055
:1003B6000130A700BE30A80066200130F0000030F2
:1003C600F100052A01300317A6000130A7001030FE
:1003D600A800662002300317A6000130A700E2300D
:1003E600A80066201530FB004B30FC00BE30FD0037
:1003F600FD0BFB29FC0BFB29FB0BFB290000FE2058
:06040600F001F101080005
:10040C0077217008ED000F3083120805F0000319F6
:0E041C00112A4021092A83166D08F0000800FD
:10042A00A9208A110A128000840AEA0A0319EB0A2F
:08043A00F003031D152A080060
:10044200B02001300317AB001A200C300317AB00A9
:100452001A2001300317A6000130A7005F30A80060
:10046200662002300317A6000130A7005130A80011
:1004720066203330FB00BB30FC00DF30FD00FD0B9B
:10048200402AFC0B402AFB0B402A00000000FE2001
:0E049200831686018312EE01EF013621080069
:1004A0005A242122EC0100306F06031D592A063020
:1004B0006E06031D992ABB217018602A8613612AD3
:1004C0008617EE01EF01861F992A0B30FB002630BC
:1004D000FC005D30FD00FD0B6B2AFC0B6B2AFB0B57
:1004E0006B2A0000000001300317AB001A20013016
:1004F0000317A6000130A700AF30A8006620023025
:100500000317A6000130A700A030A80066200C3019
:100510000317AB001A20062270088312EC00700843
:100520000D3A031D8B2A6C080D3A031D992A861378
:10053000FE20062270088312EC0070080319992A25
:10054000682B3130EC0031300317AA005D206E08B3
:10055000DB3E84006C088000EE0A0319EF0AA82B2A
:100560003230EC0032300317AA005D206E08DB3E0B
:1005700084006C088000EE0A0319EF0AA82B3330C0
:10058000EC0033300317AA005D206E08DB3E8400C8
:100590006C088000EE0A0319EF0AA82B4130EC002A
:1005A00041300317AA005D20A82B3430EC00343012
:1005B0000317AA005D206E08DB3E84006C088000F3
:1005C000EE0A0319EF0AA82B3530EC00353003177B
:1005D000AA005D206E08DB3E84006C088000EE0AF5
:1005E0000319EF0AA82B3630EC0036300317AA00A7
:1005F0005D206E08DB3E84006C088000EE0A031963
:10060000EF0AA82B4230EC0042300317AA005D200D
:10061000A82B3730EC0037300317AA005D206E0896
:10062000DB3E84006C088000EE0A0319EF0AA82B59
:100630003830EC0038300317AA005D206E08DB3E2E
:1006400084006C088000EE0A0319EF0AA82B3930E9
:10065000EC0039300317AA005D206E08DB3E8400F1
:100660006C088000EE0A0319EF0AA82B4330EC0057
:1006700043300317AA005D20A82B2A30EC0010306D
:100680000317AB001A200130EE02031CEF03A82B66
:100690003030EC0030300317AA005D206E08DB3EDE
:1006A00084006C088000EE0A0319EF0AA82B23309F
:1006B000EC0014300317AB001A20EE0A0319EF0AFE
:1006C000A82B4430EC0044300317AA005D20A82B6F
:1006D0006C08013A0319A12A6C08023A0319B02ADE
:1006E0006C08033A0319BF2A6C08043A0319CE2A8E
:1006F0006C08053A0319D52A6C08063A0319E42A4E
:100700006C08073A0319F32A6C08083A0319022BFC
:100710006C08093A0319092B6C080A3A0319182BBB
:100720006C080B3A0319272B6C080C3A0319362B6B
:100730006C080D3A03193D2B6C080E3A0319482B2F
:100740006C080F3A0319572B6C08103A0319612BE8
:04075000522AA92B55
:1008B400203084004A3083120313F000FC30EA0035
:1008C4000330EB001522A03084004D308312F00079
:1008D400AF30EA000330EB00152210308317840098
:1008E40013308312F0004630EA000430EB00152286
:0408F4008313080062
:10075E0061346E34643420344C346F3463346B340F
:0E076E00203461346734613469346E340034F1
:10077C005034723465347334733420342A34203456
:0E078C0074346F3420344F34663466340034D5
:10079A004D346F3474346F347234203469347334A2
:0807AA0020346F346E3400347A
:1007B200503461347334733477346F347234643444
:1007C20020344D34613474346334683465346434B1
:0207D2000034F1
:0E07D40030343034303430343034303400348B
:1007E2005434723479342034413467346134693496
:0607F2006E3421340034D6
:1007F80061346E34643420344C346F3463346B3475
:0608080065346434003485
:0E080E0031343234333434343534363400343B
:10081C0045346E34743465347234203436342034B8
:10082C006434693467346934743420346E346F340E
:04083C003A34003416
:100840004D346F3474346F347234203469347334FB
:0A08500020344F346634663400345F
:10085A00503461347334733477346F34723464349B
:0C086A0020344C346F3463346B340034A1
:10087600573465346C3463346F346D3465342034E6
:0608860074346F340034ED
:10088C0049346E3463346F34723472346534633487
:10089C0074342034503461347334733477346F349B
:0608AC00723464340034D4
:02400E007A3BFB
:00000001FF
